:020000040800F2
:1000000000000220212C0008612A0008672A00084D
:100010006D2A0008732A0008792A000800000000F1
:100020000000000000000000000000007F2A00081F
:100030008D2A0008000000009B2A0008A92A000859
:10004000712C0008712C0008712C0008712C00081C
:10005000712C0008712C0008712C0008712C00080C
:10006000B52A0008712C0008712C0008712C0008BA
:10007000712C0008712C0008712C0008712C0008EC
:10008000712C0008712C0008712C0008712C0008DC
:10009000C52A0008712C0008712C0008712C00087A
:1000A000712C0008712C0008712C0008712C0008BC
:1000B000D92A0008712C0008ED2A0008712C0008CC
:1000C000712C0008712C0008712C0008712C00089C
:1000D000712C0008712C0008712C0008712C00088C
:1000E000712C0008712C0008712C0008712C00087C
:1000F000712C0008712C0008712C0008712C00086C
:10010000712C0008712C0008712C0008712C00085B
:10011000712C0008712C0008012B0008712C0008BC
:100120001D2B0008712C0008712C0008712C000890
:10013000712C0008712C0008712C0008712C00082B
:10014000712C0008712C0008712C0008312B00085C
:10015000712C0008712C0008712C0008712C00080B
:10016000712C0008712C0008712C0008712C0008FB
:10017000712C0008712C0008712C00080000000090
:08018000712C0008712C00082D
:1001880010B5054C237833B9044B13B10448AFF3C9
:1001980000800123237010BDF80600200000000035
:1001A8005C6A010808B5034B1BB103490348AFF368
:1001B800008008BD00000000FC0600205C6A010801
:1001C80081F0004102E000BF83F0004330B54FEA00
:1001D80041044FEA430594EA050F08BF90EA020F6D
:1001E8001FBF54EA000C55EA020C7FEA645C7FEA00
:1001F800655C00F0E2804FEA5454D4EB5555B8BF23
:100208006D420CDD2C4480EA020281EA030382EA93
:10021800000083EA010180EA020281EA0303362D25
:1002280088BF30BD11F0004F4FEA01314FF4801CF8
:100238004CEA113102D0404261EB410113F0004F0A
:100248004FEA03334CEA133302D0524263EB4303C1
:1002580094EA050F00F0A780A4F10104D5F1200E5F
:100268000DDB02FA0EFC22FA05F2801841F10001BA
:1002780003FA0EF2801843FA05F359410EE0A5F18E
:1002880020050EF1200E012A03FA0EFC28BF4CF0BF
:10029800020C43FA05F3C01851EBE37101F0004575
:1002A80007D54FF0000EDCF1000C7EEB00006EEB82
:1002B8000101B1F5801F1BD3B1F5001F0CD349080C
:1002C8005FEA30004FEA3C0C04F101044FEA445263
:1002D80012F5800F80F09A80BCF1004F08BF5FEAEA
:1002E800500C50F1000041EB045141EA050130BDCA
:1002F8005FEA4C0C404141EB0101013C28BFB1F5DC
:10030800801FE9D291F0000F04BF01460020B1FA26
:1003180081F308BF2033A3F10B03B3F120020CDAF9
:100328000C3208DD02F1140CC2F10C0201FA0CF0D7
:1003380021FA02F10CE002F11402D8BFC2F1200C3C
:1003480001FA02F120FA0CFCDCBF41EA0C019040F2
:10035800E41AA2BF01EB0451294330BD6FEA04043B
:100368001F3C1CDA0C340EDC04F11404C4F1200226
:1003780020FA04F001FA02F340EA030021FA04F338
:1003880045EA030130BDC4F10C04C4F1200220FA8F
:1003980002F001FA04F340EA0300294630BD21FACD
:1003A80004F0294630BD94F0000F83F4801306BF93
:1003B80081F480110134013D4EE77FEA645C18BF87
:1003C8007FEA655C29D094EA050F08BF90EA020F1E
:1003D80005D054EA000C04BF1946104630BD91EA16
:1003E800030F1EBF0021002030BD5FEA545C05D119
:1003F8004000494128BF41F0004130BD14F5800458
:100408003CBF01F5801130BD01F0004545F0FE41CB
:1004180041F470014FF0000030BD7FEA645C1ABF00
:10042800194610467FEA655C1CBF0B46024650EA37
:10043800013406BF52EA033591EA030F41F4002163
:1004480030BD00BF90F0000F04BF0021704730B5E9
:100458004FF4806404F132044FF000054FF00001BE
:1004680050E700BF90F0000F04BF0021704730B57F
:100478004FF4806404F1320410F0004548BF404254
:100488004FF000013EE700BF42004FEAE2014FEAA9
:1004980031014FEA02701FBF12F07F4393F07F4F84
:1004A80081F06051704732F07F4208BF704793F087
:1004B8007F4F04BF41F40021704730B54FF460749A
:1004C80001F0004521F000411CE700BF50EA01029D
:1004D80008BF704730B54FF000050AE050EA010246
:1004E80008BF704730B511F0004502D5404261EBB6
:1004F80041014FF4806404F132045FEA915C3FF4F7
:10050800D8AE4FF003025FEADC0C18BF03325FEA93
:10051800DC0C18BF033202EBDC02C2F1200300FA44
:1005280003FC20FA02F001FA03FE40EA0E0021FA69
:1005380002F11444BDE600BF70B54FF0FF0C4CF457
:10054800E06C1CEA11541DBF1CEA135594EA0C0F09
:1005580095EA0C0F00F0DEF82C4481EA030621EA44
:100568004C5123EA4C5350EA013518BF52EA03357F
:1005780041F4801143F4801338D0A0FB02CE4FF031
:100588000005E1FB02E506F00042E0FB03E54FF061
:100598000006E1FB03569CF0000F18BF4EF0010E59
:1005A800A4F1FF04B6F5007F64F5407404D25FEA55
:1005B8004E0E6D4146EB060642EAC62141EA555108
:1005C8004FEAC52040EA5E504FEACE2EB4F1FD0C4A
:1005D80088BFBCF5E06F1ED8BEF1004F08BF5FEAC8
:1005E800500E50F1000041EB045170BD06F000467A
:1005F80046EA010140EA020081EA0301B4EB5C0427
:10060800C2BFD4EB0C0541EA045170BD41F480111E
:100618004FF0000E013C00F3AB8014F1360FDEBF43
:10062800002001F0004170BDC4F10004203C35DA1F
:100638000C341BDC04F11404C4F1200500FA05F3A2
:1006480020FA04F001FA05F240EA020001F0004243
:1006580021F0004110EBD37021FA04F642EB0601B9
:100668005EEA430E08BF20EAD37070BDC4F10C04E3
:10067800C4F1200500FA04F320FA05F001FA04F2A7
:1006880040EA020001F0004110EBD37041F1000193
:100698005EEA430E08BF20EAD37070BDC4F120059E
:1006A80000FA05F24EEA020E20FA04F301FA05F206
:1006B80043EA020321FA04F001F0004121FA04F2AE
:1006C80020EA020000EBD3705EEA430E08BF20EA7E
:1006D800D37070BD94F0000F0FD101F000464000B8
:1006E80041EB010111F4801F08BF013CF7D041EA3A
:1006F800060195F0000F18BF704703F0004652003E
:1007080043EB030313F4801F08BF013DF7D043EA0E
:100718000603704794EA0C0F0CEA135518BF95EAC4
:100728000C0F0CD050EA410618BF52EA4306D1D14B
:1007380081EA030101F000414FF0000070BD50EA6A
:10074800410606BF1046194652EA430619D094EAF4
:100758000C0F02D150EA013613D195EA0C0F05D1DE
:1007680052EA03361CBF104619460AD181EA030132
:1007780001F0004141F0FE4141F470014FF00000EA
:1007880070BD41F0FE4141F4780170BD70B54FF085
:10079800FF0C4CF4E06C1CEA11541DBF1CEA135505
:1007A80094EA0C0F95EA0C0F00F0A7F8A4EB0504E7
:1007B80081EA030E52EA03354FEA013100F08880DE
:1007C8004FEA03334FF0805545EA131343EA1263A7
:1007D8004FEA022245EA111545EA10654FEA00265C
:1007E8000EF000419D4208BF964244F1FD0404F515
:1007F800407402D25B084FEA3202B61A65EB030571
:100808005B084FEA32024FF480104FF4002CB6EB2D
:10081800020E75EB030E22BFB61A754640EA0C00AD
:100828005B084FEA3202B6EB020E75EB030E22BFED
:10083800B61A754640EA5C005B084FEA3202B6EB2E
:10084800020E75EB030E22BFB61A754640EA9C00ED
:100858005B084FEA3202B6EB020E75EB030E22BFBD
:10086800B61A754640EADC0055EA060E18D04FEA7B
:10087800051545EA16754FEA06164FEAC30343EA1B
:1008880052734FEAC2025FEA1C1CC0D111F4801FE8
:100898000BD141EA00014FF000004FF0004CB6E7E1
:1008A80011F4801F04BF01430020B4F1FD0C88BF80
:1008B800BCF5E06F3FF6AFAEB5EB030C04BFB6EB8B
:1008C800020C5FEA500C50F1000041EB045170BD7E
:1008D8000EF0004E4EEA113114EB5C04C2BFD4EBAB
:1008E8000C0541EA045170BD41F480114FF0000E2F
:1008F800013C90E645EA060E8DE60CEA135594EAAB
:100908000C0F08BF95EA0C0F3FF43BAF94EA0C0FAD
:100918000AD150EA01347FF434AF95EA0C0F7FF422
:1009280025AF104619462CE795EA0C0F06D152EA76
:1009380003353FF4FDAE1046194622E750EA41065A
:1009480018BF52EA43067FF4C5AE50EA41047FF46B
:100958000DAF52EA43057FF4EBAE12E74FF0FF3CD0
:1009680006E000BF4FF0010C02E000BF4FF0010CA1
:100978004DF804CD4FEA410C7FEA6C5C4FEA430C1A
:1009880018BF7FEA6C5C1BD001B050EA410C0CBF69
:1009980052EA430C91EA030F02BF90EA020F0020CB
:1009A800704710F1000F91EA030F58BF994208BF32
:1009B80090422CBFD8176FEAE37040F001007047EF
:1009C8004FEA410C7FEA6C5C02D150EA013C07D146
:1009D8004FEA430C7FEA6C5CD6D152EA033CD3D091
:1009E8005DF8040B704700BF8446104662468C468B
:1009F8001946634600E000BF01B5FFF7B7FF0028BE
:100A080048BF10F1000F01BD4DF808EDFFF7F4FFE6
:100A18000CBF012000205DF808FB00BF4DF808ED71
:100A2800FFF7EAFF34BF012000205DF808FB00BF94
:100A38004DF808EDFFF7E0FF94BF012000205DF8B6
:100A480008FB00BF4DF808EDFFF7CEFF94BF01206B
:100A580000205DF808FB00BF4DF808EDFFF7C4FF64
:100A680034BF012000205DF808FB00BF4FEA4102B7
:100A780012F5001215D211D56FF47873B3EB6252E8
:100A880012D94FEAC12343F0004343EA505311F00F
:100A9800004F23FA02F018BF404270474FF00000A1
:100AA800704750EA013005D111F0004008BF6FF0DF
:100AB800004070474FF00000704700BF4A0011D255
:100AC80012F5001211D20DD56FF47873B3EB6252A0
:100AD8000ED44FEAC12343F0004343EA505323FAAC
:100AE80002F070474FF00000704750EA013002D121
:100AF8004FF0FF3070474FF0000070474FEA410257
:100B0800B2F1E04324BFB3F5001CDCF1FE5C0DD963
:100B180001F0004C4FEAC0024CEA5070B2F1004FAD
:100B280040EB830008BF20F00100704711F0804FB0
:100B380021D113F13872BCBF01F00040704741F475
:100B480080114FEA5252C2F11802C2F1200C10FA79
:100B58000CF320FA02F018BF40F001004FEAC1235D
:100B68004FEAD32303FA0CFC40EA0C0023FA02F301
:100B78004FEA4303CCE77FEA625307D150EA0133D7
:100B88001EBF4FF0FE4040F44000704701F00040A7
:100B980040F0FE4040F40000704700BF53B94AB926
:100BA800002908BF00281CBF4FF0FF314FF0FF306D
:100BB80000F06EB9ADF1080C6DE904CE00F006F84E
:100BC800DDF804E0DDE9022304B070472DE9F047C1
:100BD800089D04468C46002B40F083808A421746C5
:100BE80047D9B2FA82F242B1C2F1200024FA00F0E9
:100BF8009140974040EA010C94404FEA1748230C73
:100C0800BCFBF8F61FFA87FE08FB16C143EA01434E
:100C180006FB0EF1994209D9FB1806F1FF3080F066
:100C28001981994240F21681023E3B445B1AA4B2F4
:100C3800B3FBF8F008FB103344EA034400FB0EFE54
:100C4800A64509D93C1900F1FF3380F00581A64576
:100C580040F2028102383C4440EA0640A4EB0E040C
:100C680000261DB1D4400023C5E900433146BDE844
:100C7800F08702B9FFDEB2FA82F2002A50D1CB1B0C
:100C88004FEA174E1FFA87F80126B3FBFEFC210C2A
:100C98000EFB1C3341EA034108FB0CF38B4207D9D6
:100CA80079180CF1FF3002D28B4200F2E9808446B9
:100CB800C91AA3B2B1FBFEF00EFB101143EA0144BE
:100CC80008FB00F8A04507D93C1900F1FF3302D210
:100CD800A04500F2D9801846A4EB080440EA0C406D
:100CE800BFE78B4209D9002D00F0B1800026C5E985
:100CF800000130463146BDE8F087B3FA83F6002E8E
:100D08004AD18B4202D3824200F2B880841A61EB46
:100D1800030101208C46002DA8D0C5E9004CA5E7A9
:100D2800C2F1200320FA03F6974001FA02F04FEAD5
:100D3800174ED9403043030CB1FBFEF61FFA87F873
:100D48000EFB161143EA014306FB08F1994204FA27
:100D580002F409D9FB1806F1FF3C80F08D80994216
:100D680040F28A80023E3B445B1A81B2B3FBFEF03C
:100D78000EFB103341EA034100FB08F38B4207D90D
:100D8800791800F1FF3C73D28B4271D9023839448B
:100D9800CB1A40EA064678E7C6F1200C03FA06F4B7
:100DA80022FA0CF31C4320FA0CF701FA06F34FEA77
:100DB800144E21FA0CF11F433B0CB1FBFEF91FFA4C
:100DC80084F80EFB191143EA014109FB08FA8A4528
:100DD80002FA06F200FA06F308D9611809F1FF30A1
:100DE80048D28A4546D9A9F102092144A1EB0A0152
:100DF800BFB2B1FBFEF00EFB101147EA014700FB42
:100E080008F8B84507D9E71900F1FF312ED2B845DF
:100E18002CD90238274440EA0940A7EB0807A0FB71
:100E280002894F45C64649461AD317D05DB1B3EB80
:100E38000E0267EB010707FA0CFCF2404CEA0202CB
:100E4800F740C5E9002700263146BDE8F0872E4661
:100E580028460BE70646E9E61846FDE64345E5D28F
:100E6800B8EB020E69EB04010138DFE70846D2E768
:100E780060468DE78146B9E7664675E730464AE73A
:100E8800ACF1020C394413E702383C4424E700BFB4
:100E9800704700BF80B483B000AF78607B68002BD8
:100EA800B8BF5B4218460C37BD465DF8047B7047F7
:100EB80080B483B000AF87ED010AD7ED017AF0EE78
:100EC800E77AB0EE670A0C37BD465DF8047B7047D9
:100ED80080B582B000AF78607B6803333D22002183
:100EE800184615F093FC7B6818460837BD4680BD48
:100EF800F0B5B1B004AF01F0B9FE4C4809F04CFBB5
:100F08004B494A4809F039FB0B2148480AF050FB85
:100F1800464B93F9AE31DBB2194644480AF048FB18
:100F2800444B0093444B454A414945480EF012FA58
:100F380000F03CFC01F0D0F801F0AEF800F0AAFC9B
:100F480000F0A0FD00F0E2FD00F01CFE00F0DCFE69
:100F580000F094FF01F004F813F004F800F032FFF9
:100F680000F054FD01F058F806223649364801F0E1
:100F780057FF364806F050FC354806F0B5FC3548B2
:100F880006F04AFC344806F0AFFC07F17003184637
:100F9800FFF79EFF254B1B78012B03D12F4B012216
:100FA8001A7002E02D4B00221A7021480CF02AF921
:100FB8002B480FF0EFF82B480DF039F91B4B9B7FAE
:100FC800013B042B5CD801A252F823F0E90F00087A
:100FD800F90F0008091000088910000823100008FC
:100FE8001E4B1B781A46204914480EF051F948E068
:100FF8001A4B1B781A461D490F480EF02EF840E090
:101008004FF4804301931A4B00934FF48053184ACE
:10101800184908480EF081F833E0174917480DF0D1
:1010280050FA16480DF0CAFB2BE000BF3C0A00201E
:10103800440D0020980C0020940C0020900C0020F7
:10104800700C0020D011002014070020E0080020B8
:101058002809002070090020B8090020000000209D
:10106800B81000201C11002050080020E4070020C0
:1010780000040240F8070020BC070020A80C00204C
:1010880000BFCA49CA480EF0FFFC0021C9480EF04B
:10109800F5F901228021C84804F0F4FA01F04CFE69
:1010A8000346C64A1360C149C1480EF0EDFC002151
:1010B800C0480EF0E3F900228021BF4804F0E2FAAC
:1010C80001F03AFE0346BD4A1360B9480EF03CFFF2
:1010D800B64B93F8A930002B00F05081B5480EF0BC
:1010E800C1F9034687F86830B04BB3F801309BB2BA
:1010F800A7F86930AF480EF08BF90346A7F86B30B4
:10110800412387F87030FF2387F87230A12387F8CE
:10111800713007F1730307F16802106818601279DB
:101128001A7107F170031946A5480FF05FFAFE23FC
:1011380087F87130A34B03F5387407F1730C04F189
:10114800300E654626460FCE28606960AA60EB60BF
:1011580010340CF1100C7445F3D107F170031946E3
:1011680097480FF043FA984B1B687B64964BDB68F3
:10117800BB64954B9B6AFB64934BDB6A3B65924B64
:101188005B6B7B65904B1B6A7B668F4BDB693B66B1
:101198008D4B5B69BB658C4B9B69FB65412387F86D
:1011A8007030FF2387F87230A02387F8713007F179
:1011B800440407F1730C04F1200E654626460FCE51
:1011C80028606960AA60EB6010340CF1100C74455B
:1011D800F3D1634622461068186007F17003194678
:1011E80077480FF003FA794B1B68BB63784B1B6891
:1011F8007B63784B1B68FB63774B1B683B6441231D
:1012080087F87030AF2387F87130FF2387F8723082
:1012180007F1730407F134050FCD20606160A26007
:10122800E36007F17003194665480FF0DFF9B02352
:1012380087F8713000233B71624BD3F820233B1DA4
:1012480019465B480EF0DDFE3C1D07F1730C04F1F6
:10125800200E654626460FCE28606960AA60EB60BE
:1012680010340CF1100C7445F3D16546234607CBB6
:1012780028606960AA601B782B7307F17003194610
:101288004F480FF0B3F901233B714E4BD3F81423A9
:101298003B1D194646480EF0B4FE3C1D07F1730C81
:1012A80004F1200E654626460FCE28606960AA60C4
:1012B800EB6010340CF1100C7445F3D165462346ED
:1012C80007CB28606960AA601B782B7307F170034D
:1012D80019463B480FF08AF902233B71394BD3F882
:1012E80018233B1D194632480EF08BFE3C1D07F1B2
:1012F800730C04F1200E654626460FCE28606960FF
:10130800AA60EB6010340CF1100C7445F3D16546FB
:10131800234607CB28606960AA601B782B7307F106
:101328007003194626480FF061F903233B71254BDA
:10133800D3F81C233B1D19461D480EF062FE3C1DC8
:1013480007F1730C04F1200E654626460FCE28607F
:101358006960AA60EB6010340CF1100C7445F3D18D
:101368006546234607CB28606960AA601B782B7303
:1013780007F17003194612480FF038F9174B1B781C
:10138800002B00F0878016480CF0AEFF03469AB297
:10139800144B1A800C4B1B681846FFF77BFD02465E
:1013A800094B1B699A42A8BF01231DE03C0A002093
:1013B800280C0020700C002000100240FC110020B6
:1013C800000A0020940D0020440D0020EC1100209C
:1013D800F4110020F0110020F8110020C5110020A0
:1013E8001C110020E8110020B8BF0023DBB2002B3D
:1013F8000ED0A54B1A69A44B1B68002B02DA4FF0DC
:10140800FF3300E0012302FB03F3A04A136003E06B
:101418009D4B1B689D4A13609C4B18689A4B1B692F
:101428005942994B1A699A4BD3F82140984BD3F8F3
:101438002530009323460FF023F90346954A13609D
:10144800954B1988954B1A88954B1888954B1B888E
:101458000093034694480FF021F8944B1B881D46CF
:101468008C4B1A68904B5B8919468F4BDB8B18465F
:101478008D4B5B8E1C468C4BB3F84630039302941D
:10148800019000910023294689480CF045FD8848C1
:101498000FF09CF8874B1B78002B3FF416AE7A4868
:1014A8000BF0CEFE7A4B93F8AD31002B21D0784B60
:1014B80093F8A931082B18D0082B00F34981002B89
:1014C80003D0062B00F0468142E17B480EF060F91C
:1014D8000346002B00F040816D4B002283F8AD21BC
:1014E8000B216B4809F0C1FF36E16F480FF00EF889
:1014F80033E1654971480FF03DFC034607EE903A29
:10150800F8EEE77A6E4BC3ED007A6D4BD3ED007AB7
:10151800F5EE407AF1EE10FA14BF01230023DBB296
:10152800002B31D0664BD3ED007AF5EEC07AF1EEA0
:1015380010FA02D54FF0FF3400E00124604BD3EDE0
:10154800007AB0EE670AFFF7B3FCF0EE407AFDEEE2
:10155800E77A4F4BB3F85D309BB21A464C4BB3F861
:1015680080300093134642F21072002117EE900A61
:101578000FF086F8034603FB04F307EE903AF8EE03
:10158800E77A4F4BC3ED007A414B93F88230002B3A
:1015980007D04B4BD3ED007AF1EE677A484BC3ED99
:1015A800007A394B1B681846FFF774FC0246364B25
:1015B8001B699A42CCBF01230023DBB2002B4BD01E
:1015C800314B1B681846FFF765FC02462E4B1B691A
:1015D800D31A07EE903AF8EEE76A2B4B1B6A07EE30
:1015E800903AF8EEE77A86EEA77A294BB3F85B30A3
:1015F8009BB207EE903AF8EEE77A67EE277AB2EEFA
:10160800047A67EE877A2F4BC3ED007A2D4BD3ED22
:10161800007A9FED2D1ADFED2D0AB0EE670A0FF064
:1016280082F8F0EE407A274BC3ED007A164B1B6820
:10163800002B02DABFEE007A01E0B7EE007A214B08
:10164800D3ED007A27EE277A1D4BD3ED007A77EE9B
:10165800277A1B4BC3ED007A0D4BB3F9A230002B50
:10166800B8BF5B429BB242F20F7293423FD9084B1C
:10167800B3F85B309BB21A46034B1B68002B27DA82
:101688004FF0FF3325E000BF440D0020C8110020B3
:101698003C0A0020CC110020E0110020E2110020BB
:1016A800E4110020E6110020B8100020E811002005
:1016B800000A0020C4110020700C0020940D0020A6
:1016C800F4110020EC11002000401C4600401CC60C
:1016D800012302FB03F307EE903AB8EEE77A2B4BAF
:1016E800D3ED007A77EE277A284BC3ED007A274BA3
:1016F800D3ED007A9FED261ADFED260AB0EE670AD1
:101708000FF011F8F0EE407A204BC3ED007A224B2F
:1017180093F88230002B0ED01C4BD3ED007AF1EEFB
:10172800677AFDEEE77A17EE903A1BB219461B4826
:101738000DF0A4FE11E0154BD3ED007AFDEEE77A2B
:1017480017EE903A1BB2194614480DF097FE04E0C4
:1017580000BF02E000BF00E000BF01F0EDFA024662
:101768000F4B1B68D31A42F20F72934294BF0123A6
:101778000023DBB2002B04D00A4B1B680133094A53
:101788001360094B00221A709FE400BFF411002077
:1017980000401C4600401CC63C0A0020700C00207B
:1017A800FC11002000120020C411002080B594B064
:1017B80000AF07F1200330220021184615F026F863
:1017C80007F10C0300221A605A609A60DA601A6105
:1017D8000023BB602D4B1B6C2C4A43F080531364D1
:1017E8002A4B1B6C03F08053BB60BB6800237B60F3
:1017F800274B1B68264A43F480431360244B1B681D
:1018080003F480437B607B6801233B624FF48033A1
:101818007B620223BB634FF48003FB6304233B64B6
:10182800A8237B640223BB640723FB6407F120031E
:10183800184605F0C5F80346002B14BF0123002302
:10184800DBB2002B01D000F0BBFD0F23FB600223AD
:101858003B6100237B614FF4A053BB614FF480537D
:10186800FB6107F10C030521184605F021FB03462F
:10187800002B14BF01230023DBB2002B01D000F0A2
:101888009FFD00BF5037BD4680BD00BF00380240F5
:101898000070004080B584B000AF3B4600221A605B
:1018A8005A609A60DA60564B564A1A60544B4FF4A5
:1018B80080325A60524B00229A60514B01221A61C1
:1018C8004F4B01221A764E4B002283F820204C4BB6
:1018D8000022DA624A4B4C4A9A62494B0022DA608B
:1018E800474B0622DA61464B012283F83020444BED
:1018F80001225A61424801F04FFA0346002B14BFF7
:1019080001230023DBB2002B01D000F059FD0A238C
:101918003B6001237B600723BB603B461946384880
:1019280001F0A2FB0346002B14BF01230023DBB206
:10193800002B01D000F044FD0B233B6002237B60A9
:101948003B4619462E4801F08FFB0346002B14BF77
:1019580001230023DBB2002B01D000F031FD0C2362
:101968003B6003237B603B461946254801F07CFB1E
:101978000346002B14BF01230023DBB2002B01D048
:1019880000F01EFD0D233B6004237B603B46194697
:101998001B4801F069FB0346002B14BF01230023F9
:1019A800DBB2002B01D000F00BFD06233B600523C2
:1019B8007B603B461946124801F056FB0346002B54
:1019C80014BF01230023DBB2002B01D000F0F8FC88
:1019D80007233B6006237B603B461946084801F015
:1019E80043FB0346002B14BF01230023DBB2002B6B
:1019F80001D000F0E5FC00BF1037BD4680BD00BF38
:101A080014070020002001400100000F80B500AF3E
:101A18001A4B1B4A1A60194B06225A60174B0022B0
:101A28009A60164B0022DA60144B4FF420221A6198
:101A3800124B4FF480125A61104B00221A760F4B4A
:101A480000225A760D4B00229A760C4B0022DA7649
:101A58000A4B00221A77094B00225A77074801F0EF
:101A6800A3FD0346002B14BF01230023DBB2002B88
:101A780001D000F0A5FC00BF80BD00BFBC0700205E
:101A88000064004080B582B000AF3B4600221A6077
:101A98005A601C4B1C4A1A601A4802F07AFD034629
:101AA800002B14BF01230023DBB2002B01D000F070
:101AB80087FC00233B6000237B603B4600221946DD
:101AC800104802F063FE0346002B14BF01230023D5
:101AD800DBB2002B01D000F073FC3B461022194604
:101AE800084802F053FE0346002B14BF01230023CD
:101AF800DBB2002B01D000F063FC00BF0837BD4605
:101B080080BD00BFE40700200074004080B500AF2E
:101B18001A4B1B4A1A60194B4FF482725A60174BC2
:101B280000229A60154B0022DA60144B00221A61D9
:101B3800124B00225A61114B4FF400729A610F4BFD
:101B48000822DA610D4B00221A620C4B00225A62FD
:101B58000A4B00229A62094B0A22DA62074805F00A
:101B68007BFB0346002B14BF01230023DBB2002BB1
:101B780001D000F025FC00BF80BD00BFF8070020A1
:101B88000038004080B594B000AF5B4B1B685B4ADF
:101B9800B2F8012092B21146584AB2F81F2092B208
:101BA800013202FB01F2B3FBF2F3013BFB64534B3E
:101BB800B3F81F309BB2BB6407F1400300221A60E0
:101BC8005A6007F1240300221A605A609A60DA60AA
:101BD8001A615A619A613B1D20220021184614F0AF
:101BE80015FE474B474A1A60454AFB6C5360444B05
:101BF80000229A60424ABB6CD360414B00221A61B2
:101C08003F4B00225A613E4B00229A613C4805F046
:101C1800DBFE0346002B14BF01230023DBB2002B9D
:101C280001D000F0CDFB00233B6400237B6407F167
:101C380040031946324806F0B3FF0346002B14BF91
:101C480001230023DBB2002B01D000F0B9FB602395
:101C58007B620023BB620023FB6200233B630023FB
:101C68007B630023BB630023FB6307F1240300228B
:101C78001946234806F0D2FA0346002B14BF012365
:101C88000023DBB2002B01D000F09AFB07F12403FC
:101C9800042219461A4806F0C1FA0346002B14BF5D
:101CA80001230023DBB2002B01D000F089FB0023C5
:101CB8007B600023BB600023FB6000233B610023A3
:101CC8007B614FF40053BB6100233B623B1D194607
:101CD8000B4806F0E1FF0346002B14BF0123002345
:101CE800DBB2002B01D000F06BFB054800F07AFE58
:101CF80000BF5037BD4680BD040000203C0A0020CC
:101D0800500800200000014080B58CB000AF07F1FA
:101D18000C0324220021184614F078FD3B1D0022F4
:101D28001A605A60264B4FF080421A60244B0022FA
:101D38005A60234B00229A60214B4FF0FF32DA6041
:101D48001F4B00221A611E4B00229A610323FB607D
:101D580000233B6101237B610023BB610F23FB61EF
:101D680000233B6201237B620023BB620023FB62EA
:101D780007F10C031946124805F03EFF0346002BF5
:101D880014BF01230023DBB2002B01D000F018FBA5
:101D980000237B600023BB603B1D1946084806F002
:101DA800FFFE0346002B14BF01230023DBB2002BE8
:101DB80001D000F005FB00BF3037BD4680BD00BF35
:101DC8009808002080B586B000AF07F1080300220C
:101DD8001A605A609A60DA603B4600221A605A60BC
:101DE800244B254A1A60234B53225A60214B002268
:101DF8009A60204B4FF6FF72DA601E4B00221A6180
:101E08001C4B00229A611B4805F0B6FC0346002BC8
:101E180014BF01230023DBB2002B01D000F0D0FA5D
:101E28004FF48053BB6007F108031946114806F0C8
:101E3800B7FA0346002B14BF01230023DBB2002BA3
:101E480001D000F0BDFA00233B6000237B603B46D5
:101E58001946084806F0A4FE0346002B14BF0123C8
:101E68000023DBB2002B01D000F0AAFA00BF18371C
:101E7800BD4680BDE00800200004004080B588B061
:101E880000AF334B9B8B40F2DC52934208D8304B67
:101E98009B8B1A462F4B93FBF2F3013BFB6102E04D
:101EA80040F29923FB6107F10C0300221A605A6083
:101EB8009A60DA603B1D00221A605A60264B274A56
:101EC8001A60254B53225A60234B00229A60224AFB
:101ED800FB69D360204B00221A611F4B00229A61D4
:101EE8001D4805F049FC0346002B14BF01230023BD
:101EF800DBB2002B01D000F063FA4FF48053FB6093
:101F080007F10C031946144806F04AFA0346002B59
:101F180014BF01230023DBB2002B01D000F050FADC
:101F280000237B600023BB603B1D19460A4806F06E
:101F380037FE0346002B14BF01230023DBB2002B1E
:101F480001D000F03DFA00BF2037BD4680BD00BF7C
:101F58003C0A002040420F002809002000080040E9
:101F680080B586B000AF07F1080300221A605A60F6
:101F78009A60DA603B4600221A605A60244B254A70
:101F88001A60234B53225A60214B00229A60204B3F
:101F98004FF0FF32DA601E4B00221A611C4B002200
:101FA8009A611B4805F0E8FB0346002B14BF012388
:101FB8000023DBB2002B01D000F002FA4FF480536B
:101FC800BB6007F108031946114806F0E9F9034612
:101FD800002B14BF01230023DBB2002B01D000F03B
:101FE800EFF900233B6000237B603B461946084815
:101FF80006F0D6FD0346002B14BF01230023DBB2F5
:10200800002B01D000F0DCF900BF1837BD4680BDB9
:1020180070090020000C004080B582B000AF3B463C
:1020280000221A605A601A4B1A4A1A60184B532237
:102038005A60174B00229A60154B40F2E732DA607B
:10204800134B00229A61124805F096FB0346002BB9
:1020580014BF01230023DBB2002B01D000F0B0F93C
:1020680000233B6000237B603B461946084806F086
:1020780097FD0346002B14BF01230023DBB2002B7E
:1020880001D000F09DF900BF0837BD4680BD00BFF4
:10209800B80900200010004080B582B000AF0023CE
:1020A8007B600C4B1B6B0B4A43F480031363094B97
:1020B8001B6B03F480037B607B68002200213820BF
:1020C80002F01FFA382002F038FA00BF0837BD4680
:1020D80080BD00BF0038024080B58CB000AF07F16A
:1020E8001C0300221A605A609A60DA601A610023A1
:1020F800BB61734B1B6B724A43F080031363704BD5
:102108001B6B03F08003BB61BB6900237B616C4BD5
:102118001B6B6B4A43F004031363694B1B6B03F09F
:1021280004037B617B6900233B61654B1B6B644A3D
:1021380043F001031363624B1B6B03F001033B6124
:102148003B690023FB605E4B1B6B5D4A43F0100349
:1021580013635B4B1B6B03F01003FB60FB680023EE
:10216800BB60574B1B6B564A43F002031363544B37
:102178001B6B03F00203BB60BB6800237B60504B02
:102188001B6B4F4A43F0080313634D4B1B6B03F063
:1021980008037B607B68002240F28311494803F002
:1021A80071FA00224FF4A041474803F06BFA00226D
:1021B8004FF4E071454803F065FA00224FF440718E
:1021C800434803F05FFA0423FB614FF404133B62B6
:1021D80000237B6207F11C0319463D4803F09EF873
:1021E80040F28313FB6101233B6200237B620023DF
:1021F800BB6207F11C031946324803F08FF84FF40D
:102208007043FB6100233B6200237B6207F11C03E0
:1022180019462C4803F082F84FF44063FB61002311
:102228003B6200237B6207F11C031946264803F032
:1022380075F84FF4A043FB6101233B6200237B62E6
:102248000023BB6207F11C0319461F4803F066F818
:102258004FF47843FB6100233B6200237B6207F164
:102268001C0319461B4803F059F84FF4E073FB614F
:1022780001233B6200237B620023BB6207F11C033E
:102288001946124803F04AF84FF44073FB610123E2
:102298003B6200237B620023BB6207F11C031946E3
:1022A8000B4803F03BF800220021082002F029F92E
:1022B800082002F042F900BF3037BD4680BD00BF9C
:1022C80000380240001002400004024000080240AA
:1022D80000000240000C024080B483B000AF786078
:1022E8007B681A680A4B1B689A4202D1094B012283
:1022F8001A707B681A68084B1B689A4202D1074B10
:1023080001221A7000BF0C37BD465DF8047B704788
:1023180028090020C4110020B8090020C511002098
:1023280080B582B000AF0346FB80FB88042B02D146
:1023380003480BF08DF800BF0837BD4680BD00BFCD
:10234800440D002080B483B000AF78600E4B1A882B
:102358000E4B1A800C4B5A880D4B1A800A4B9A88E0
:102368000C4B1A80084BDA880B4B1A80064B1A89DB
:102378000A4B1A80044B5A89094B1A8000BF0C3744
:10238800BD465DF8047B7047D0110020E0110020A5
:10239800E2110020E4110020E6110020DC110020E9
:1023A800DE11002080B582B000AF786003480CF0E1
:1023B800FDF800BF0837BD4680BD00BFA80C00204F
:1023C80080B400AF72B600BFFEE7000080B582B0EF
:1023D80000AF786039607B68012B28D13B684FF6E5
:1023E800FF72934223D12A480EF0D6F8294808F004
:1023F80097F829480DF02BFB28480CF08FFF284848
:102408000CF030FF27480CF012FE27480CF06FFE46
:1024180026480CF037F826480AF072FE25480EF0D8
:10242800E9FB25480DF08EFE24480BF0B7FE7B68CB
:10243800002B28D13B684FF6FF72934223D11F48E7
:102448000BF0EAFE1C480DF099FE1A480EF02AFC23
:1024580017480AF081FE15480CF028F812480CF0CD
:1024680051FE10480CF0EEFD0D480CF006FF0B482D
:102478000CF065FF08480DF0FCFA064808F06EF805
:1024880003480EF096F800BF0837BD4680BD00BF70
:10249800000A00203C0A0020280C0020700C0020B4
:1024A800900C0020940C0020980C0020A80C002010
:1024B800440D0020940D0020B81000201C110020AD
:1024C80080B500AF4FF6FF710120FFF77FFF80BD99
:1024D80080B500AF4FF6FF710020FFF777FF80BD92
:1024E80080B483B000AF00237B60104B5B6C0F4A55
:1024F80043F4804353640D4B5B6C03F480437B606F
:102508007B6800233B60094B1B6C084A43F08053EF
:102518001364064B1B6C03F080533B603B6800BFA1
:102528000C37BD465DF8047B704700BF0038024099
:1025380080B58AB000AF786007F1140300221A60F2
:102548005A609A60DA601A617B681B683C4A934259
:1025580071D100233B613B4B5B6C3A4A43F4807377
:102568005364384B5B6C03F480733B613B69002315
:10257800FB60344B1B6B334A43F004031363314B4A
:102588001B6B03F00403FB60FB680023BB602D4B4F
:102598001B6B2C4A43F0010313632A4B1B6B03F09C
:1025A8000103BB60BB680F237B610323BB6100236E
:1025B800FB6107F114031946234802F0AFFEC0235C
:1025C8007B610323BB610023FB6107F114031946F8
:1025D8001E4802F0A3FE1E4B1E4A1A601C4B002226
:1025E8005A601B4B00229A60194B0022DA60184B84
:1025F8004FF480621A61164B4FF400625A61144B13
:102608004FF400529A61124B4FF48072DA61104B0A
:1026180000221A620E4B00225A620D4802F010F98D
:102628000346002B01D0FFF7CBFE7B68084A9A636C
:10263800074A7B68936300BF2837BD4680BD00BF4B
:10264800002001400038024000080240000002401B
:102658005C0700201064024080B58AB000AF786043
:1026680007F1140300221A605A609A60DA601A614E
:102678007B681B681D4A934234D100233B611C4B85
:102688001B6C1B4A43F000731364194B1B6C03F05B
:1026980000733B613B690023FB60154B1B6B144ABD
:1026A80043F002031363124B1B6B03F00203FB603E
:1026B800FB684FF440737B610223BB610023FB611D
:1026C80003233B6209237B6207F114031946094877
:1026D80002F024FE00220021142001F012FF142031
:1026E80001F02BFF00BF2837BD4680BD00640040C5
:1026F800003802400004024080B58AB000AF78601C
:1027080007F1140300221A605A609A60DA601A61AD
:102718007B681B681B4A93422FD100233B611A4BED
:102728001B6C194A43F000531364174B1B6C03F0DE
:1027380000533B613B690023FB60134B1B6B124A40
:1027480043F001031363104B1B6B03F00103FB60A1
:10275800FB6830237B610323BB610023FB6107F126
:1027680014031946094802F0D9FD00220021362039
:1027780001F0C7FE362001F0E0FE00BF2837BD4655
:1027880080BD00BF007400400038024000000240D5
:1027980080B58AB000AF786007F1140300221A6090
:1027A8005A609A60DA601A617B681B68194A93421A
:1027B8002CD100233B61184B1B6C174A43F4804310
:1027C8001364154B1B6C03F480433B613B69002386
:1027D800FB60114B1B6B104A43F0020313630E4B53
:1027E8001B6B03F00203FB60FB684FF420437B6123
:1027F8000223BB610023FB6103233B6205237B6249
:1028080007F114031946054802F088FD00BF283770
:10281800BD4680BD00380040003802400004024038
:1028280080B485B000AF78607B681B680B4A934220
:102838000DD10023FB600A4B5B6C094A43F001038E
:102848005364074B5B6C03F00103FB60FB6800BF3C
:102858001437BD465DF8047B704700BF0000014097
:102868000038024080B58AB000AF786007F11403E1
:1028780000221A605A609A60DA601A617B681B68E5
:10288800B3F1804F33D100233B611B4B1B6C1A4AB9
:1028980043F001031364184B1B6C03F001033B6105
:1028A8003B690023FB60144B1B6B134A43F0010385
:1028B8001363114B1B6B03F00103FB60FB680323DD
:1028C8007B610223BB610023FB6103233B6201237D
:1028D8007B6207F114031946084802F01FFD002225
:1028E80000211C2001F00DFE1C2001F026FE00BF77
:1028F8002837BD4680BD00BF0038024000000240B6
:1029080080B586B000AF78607B681B68304A934218
:102918000ED100237B612F4B1B6C2E4A43F0020320
:1029280013642C4B1B6C03F002037B617B694AE048
:102938007B681B68284A934216D100233B61254BCC
:102948001B6C244A43F004031364224B1B6C03F0F2
:1029580004033B613B69002200211E2001F0D1FDE8
:102968001E2001F0EAFD2EE07B681B681B4A93429B
:102978000ED10023FB60174B1B6C164A43F008036B
:102988001364144B1B6C03F00803FB60FB681AE02C
:102998007B681B68124A934215D10023BB600D4B1C
:1029A8001B6C0C4A43F0100313640A4B1B6C03F0B6
:1029B8001003BB60BB6800220021362001F0A1FD96
:1029C800362001F0BAFD00BF1837BD4680BD00BFF4
:1029D800000400400038024000080040000C00409D
:1029E8000010004080B588B000AF786007F10C0394
:1029F80000221A605A609A60DA601A617B681B6864
:102A0800124A93421ED10023BB60114B1B6B104A24
:102A180043F0100313630E4B1B6B03F01003BB60F2
:102A2800BB684FF42063FB6002233B6100237B619A
:102A38000023BB610123FB6107F10C03194605481C
:102A480002F06CFC00BF2037BD4680BD000001408D
:102A5800003802400010024080B400AFFEE780B4A6
:102A680000AFFEE780B400AFFEE780B400AFFEE73A
:102A780080B400AFFEE780B400AF00BFBD465DF88C
:102A8800047B704780B400AF00BFBD465DF8047B8F
:102A9800704780B400AF00BFBD465DF8047B704747
:102AA80080B500AF00F034F900BF80BD80B500AF3D
:102AB800042002F001FE00BF80BD000080B500AF19
:102AC800024801F0D9F900BF80BD00BFBC07002053
:102AD80080B500AF024805F098FA00BF80BD00BF7E
:102AE8009808002080B500AF024805F08EFA00BFB4
:102AF80080BD00BF2809002080B500AF034801F061
:102B0800BCFD034805F081FA00BF80BDE407002042
:102B1800B809002080B500AF024801F097FF00BF58
:102B280080BD00BF5C07002080B500AF024802F0FE
:102B38002BFF00BF80BD00BF1017002080B400AF7E
:102B480001231846BD465DF8047B704780B582B006
:102B580000AF7860396013F011FE034616221A6040
:102B68004FF0FF3318460837BD4680BD80B582B0A8
:102B780000AF78604FF0FF317868FFF7E7FFFEE7B6
:102B880080B586B000AF7860144A154BD31A7B61C4
:102B98007B693B61134B1B68002B02D1114B124A16
:102BA8001A60104B1A687B6813443A699A4207D234
:102BB80013F0E4FD03460C221A604FF0FF3309E0DE
:102BC800084B1B68FB60074B1A687B681344054A6F
:102BD8001360FB6818461837BD4680BD0000022008
:102BE8000004000004120020281B002080B400AF5D
:102BF800084BD3F88830074A43F47003C2F888308A
:102C0800044B4FF000629A6000BFBD465DF8047B3C
:102C1800704700BF00ED00E0DFF834D0002103E08A
:102C28000C4B5B58435004310B480C4B42189A42EA
:102C3800F6D30B4A02E0002342F8043B094B9A42C0
:102C4800F9D3FFF7D3FF13F09FFDFEF751F9704753
:102C5800000002201071010800000020F806002082
:102C6800F8060020281B0020FEE7000080B500AF12
:102C78000E4B1B680D4A43F4007313600B4B1B6823
:102C88000A4A43F480631360084B1B68074A43F4FD
:102C980080731360032001F029FC002000F008F87D
:102CA800FFF71EFC0023184680BD00BF003C024011
:102CB80080B582B000AF7860124B1A68124B1B784F
:102CC80019464FF47A73B3FBF1F3B2FBF3F31846EA
:102CD80001F053FC0346002B01D001230EE07B6872
:102CE8000F2B0AD8002279684FF0FF3001F009FC59
:102CF800064A7B681360002300E001231846083762
:102D0800BD4680BD040000200C0000200800002003
:102D180080B400AF064B1B781A46064B1B68134459
:102D2800044A136000BFBD465DF8047B704700BFCE
:102D38000C0000201812002080B400AF034B1B6861
:102D48001846BD465DF8047B704700BF1812002086
:102D580080B584B000AF7860FFF7EEFFB8607B689D
:102D6800FB60FB68B3F1FF3F05D00A4B1B781A469E
:102D7800FB681344FB6000BFFFF7DEFF0246BB6839
:102D8800D31AFA689A42F7D800BF00BF1037BD4679
:102D980080BD00BF0C00002080B584B000AF786013
:102DA8000023FB737B68002B01D1012333E07B6890
:102DB8001B6C002B09D17868FFF7BAFB7B680022EF
:102DC8005A647B68002283F83C207B681B6C03F004
:102DD8001003002B18D17B681B6C23F4885323F055
:102DE800020343F002027B681A64786800F05EFA16
:102DF8007B6800225A647B681B6C23F0030343F052
:102E080001027B681A6401E00123FB737B680022DE
:102E180083F83C20FB7B18461037BD4680BD000078
:102E280080B586B000AFF860B9607A6000233B6176
:102E3800FB6893F83C30012B01D10223E9E0FB68E1
:102E4800012283F83C20FB681B689B6803F00103A0
:102E5800012B18D0FB681B689A68FB681B6842F056
:102E680001029A606D4B1B686D4AA2FB03239A0C02
:102E780013465B0013443B6102E03B69013B3B6145
:102E88003B69002BF9D1FB681B689B6803F48073CE
:102E9800B3F5807F07D1FB681B689A68FB681B68DD
:102EA80022F480729A60FB681B689B6803F0010338
:102EB800012B40F0A180FB681B6C23F4E06323F036
:102EC800010343F48072FB681A64FB681B685B6843
:102ED80003F48063002B07D0FB681B6C23F440537A
:102EE80043F48052FB681A64FB681B6C03F480533C
:102EF800B3F5805F06D1FB685B6C23F00602FB68C4
:102F08005A6402E0FB6800225A64FB68002283F8D6
:102F18003C20444B7B61FB689B6B434ADA63FB684C
:102F28009B6B424A1A64FB689B6B414ADA64FB68F4
:102F38001B686FF022021A60FB681B685A68FB68FE
:102F48001B6842F080625A60FB681B689A68FB68DD
:102F58001B6842F480729A60FB68986BFB681B6878
:102F68004C331946BA687B6801F018FD7B695B68C9
:102F780003F01F03002B2AD1FB681B682D4A9342DC
:102F880015D0FB681B682C4A934205D1254B5B681A
:102F980003F01F03002B0AD0FB681B68274A9342E3
:102FA80036D1204B5B6803F01003002B30D1FB684F
:102FB8001B689B6803F04053002B29D1FB681B68F2
:102FC8009A68FB681B6842F080429A6020E0FB68C0
:102FD8001B68184A93421BD1FB681B689B6803F067
:102FE8004053002B14D1FB681B689A68FB681B6868
:102FF80042F080429A600BE0FB681B6C43F01002C1
:10300800FB681A64FB685B6C43F00102FB685A6456
:10301800002318461837BD4680BD00BF04000020B5
:1030280083DE1B4300230140AD34000867350008E8
:1030380083350008002001400021014000220140A2
:1030480080B483B000AF786000BF0C37BD465DF830
:10305800047B704780B483B000AF786000BF0C3742
:10306800BD465DF8047B704780B485B000AF7860DA
:1030780039600023BB607B6893F83C30012B01D199
:10308800022305E17B68012283F83C203B681B682A
:10309800092B25D97B681B68D9683B681B689BB2DC
:1030A8001A4613465B0013441E3B072202FA03F339
:1030B800DA437B681B680A40DA607B681B68D9685A
:1030C8003B689A683B681B689BB2184603465B00DE
:1030D80003441E3B9A407B681B680A43DA6022E07F
:1030E8007B681B6819693B681B689BB21A461346C4
:1030F8005B001344072202FA03F3DA437B681B6878
:103108000A401A617B681B6819693B689A683B68C2
:103118001B689BB2184603465B0003449A407B68D1
:103128001B680A431A613B685B68062B24D87B68D6
:103138001B68596B3B685A6813469B001344053B50
:103148001F2202FA03F3DA437B681B680A405A63BA
:103158007B681B68596B3B681B689BB218463B68C9
:103168005A6813469B001344053B00FA03F27B6838
:103178001B680A435A634CE03B685B680C2B24D8F5
:103188007B681B68196B3B685A6813469B0013449D
:10319800233B1F2202FA03F3DA437B681B680A40C9
:1031A8001A637B681B68196B3B681B689BB21846DF
:1031B8003B685A6813469B001344233B00FA03F20A
:1031C8007B681B680A431A6323E07B681B68D96A1B
:1031D8003B685A6813469B001344413B1F2202FA7E
:1031E80003F3DA437B681B680A40DA627B681B6872
:1031F800D96A3B681B689BB218463B685A681346F5
:103208009B001344413B00FA03F27B681B680A43A6
:10321800DA62224BFB607B681B68214A934209D122
:103228003B681B68122B05D1FB685B6843F480027E
:10323800FB685A607B681B68194A934223D13B6834
:103248001B68102B03D03B681B68112B1BD1FB6834
:103258005B6843F40002FB685A603B681B68102BEC
:1032680011D1104B1B68104AA2FB03239A0C13467A
:103278009B0013445B00BB6002E0BB68013BBB6082
:10328800BB68002BF9D17B68002283F83C2000231F
:1032980018461437BD465DF8047B7047002301408B
:1032A800002001400400002083DE1B4380B485B069
:1032B80000AF7860794BFB60FB685B6823F44032B1
:1032C800FB685A60FB685A687B685B681A43FB684E
:1032D8005A607B681B685A687B681B6822F4807296
:1032E8005A607B681B6859687B681B691A027B688F
:1032F8001B680A435A607B681B685A687B681B68AE
:1033080022F040725A607B681B6859687B689A682B
:103318007B681B680A435A607B681B689A687B68ED
:103328001B6822F400629A607B681B6899687B6856
:10333800DA687B681B680A439A607B689B6A584A0C
:10334800934222D07B681B689A687B681B6822F0CE
:1033580070629A607B681B6899687B689A6A7B6868
:103368001B680A439A607B681B689A687B681B68BD
:1033780022F040529A607B681B6899687B68DA6A19
:103388007B681B680A439A600FE07B681B689A6831
:103398007B681B6822F070629A607B681B689A6879
:1033A8007B681B6822F040529A607B681B689A68A9
:1033B8007B681B6822F002029A607B681B68996828
:1033C8007B681B7E5A007B681B680A439A607B688F
:1033D80093F82030002B1BD07B681B685A687B68E9
:1033E8001B6842F400625A607B681B685A687B68F5
:1033F8001B6822F460425A607B681B6859687B68C6
:103408005B6A013B5A037B681B680A435A6007E002
:103418007B681B685A687B681B6822F400625A60E4
:103428007B681B68DA6A7B681B6822F47002DA62C0
:103438007B681B68D96A7B68DB69013B1A057B6876
:103448001B680A43DA627B681B689A687B681B689A
:1034580022F400729A607B681B6899687B6893F80D
:1034680030305A027B681B680A439A607B681B6885
:103478009A687B681B6822F480629A607B681B6884
:1034880099687B685B699A027B681B680A439A6043
:1034980000BF1437BD465DF8047B70470023014028
:1034A8000100000F80B584B000AF78607B689B6B2B
:1034B800FB60FB681B6C03F05003002B3CD1FB68DE
:1034C8001B6C43F40072FB681A64FB681B689B68FA
:1034D80003F04053002B2BD1FB681B7E002B27D118
:1034E800FB681B68DB6A03F47003002B06D0FB68DB
:1034F8001B689B6803F48063002B19D1FB681B6869
:103508005A68FB681B6822F020025A60FB681B6C33
:1035180023F48072FB681A64FB681B6C03F4805305
:10352800002B05D1FB681B6C43F00102FB681A6491
:10353800F868FEF707FF0EE0FB681B6C03F010034A
:10354800002B03D0F868FFF785FD04E0FB689B6B50
:10355800DB6C7868984700BF1037BD4680BD80B5E2
:1035680084B000AF78607B689B6BFB60F868FFF7FE
:1035780067FD00BF1037BD4680BD80B584B000AF81
:1035880078607B689B6BFB60FB6840221A64FB6871
:103598005B6C43F00402FB685A64F868FFF75AFD55
:1035A80000BF1037BD4680BD80B584B000AF7860DD
:1035B8007B68002B01D10123EDE07B6893F8203074
:1035C800DBB2002B02D17868FFF746F87B681B68EE
:1035D8001A687B681B6842F001021A60FFF7ACFBAF
:1035E800F86012E0FFF7A8FB0246FB68D31A0A2B23
:1035F8000BD97B685B6A43F400327B685A627B684C
:10360800052283F820200123C5E07B681B685B68DE
:1036180003F00103002BE5D07B681B681A687B6800
:103628001B6822F002021A60FFF786FBF86012E0BE
:10363800FFF782FB0246FB68D31A0A2B0BD97B687B
:103648005B6A43F400327B685A627B68052283F820
:10365800202001239FE07B681B685B6803F002035E
:10366800002BE5D17B681B7E012B08D17B681B688A
:103678001A687B681B6842F080021A6007E07B6862
:103688001B681A687B681B6822F080021A607B68D6
:103698005B7E012B08D17B681B681A687B681B68F6
:1036A80042F040021A6007E07B681B681A687B6872
:1036B8001B6822F040021A607B689B7E012B08D1B0
:1036C8007B681B681A687B681B6842F020021A60D6
:1036D80007E07B681B681A687B681B6822F0200279
:1036E8001A607B68DB7E012B08D17B681B681A682F
:1036F8007B681B6822F010021A6007E07B681B6871
:103708001A687B681B6842F010021A607B681B7F8E
:10371800012B08D17B681B681A687B681B6842F01C
:1037280008021A6007E07B681B681A687B681B68D8
:1037380022F008021A607B685B7F012B08D17B6846
:103748001B681A687B681B6842F004021A6007E06D
:103758007B681B681A687B681B6822F004021A6081
:103768007B689A687B68DB681A437B681B691A4325
:103778007B685B6942EA03017B685B685A1E7B6869
:103788001B680A43DA617B6800225A627B6801225F
:1037980083F82020002318461037BD4680BD00005E
:1037A80080B487B000AF786039607B681B687B6144
:1037B8007B6893F82030FB74FB7C012B03D0FB7CE7
:1037C800022B40F0BE80654B7B617B69D3F80032E9
:1037D80043F001027B69C3F800227B69D3F8003209
:1037E80023F47C527B69C3F800227B69D3F800225A
:1037F8003B685B6A1B021A437B69C3F800223B687B
:103808005B6903F01F03012202FA03F3FB607B6983
:10381800D3F81C22FB68DB431A407B69C3F81C22DF
:103828003B68DB69002B23D17B69D3F80C22FB684A
:10383800DB431A407B69C3F80C223B68DB68190438
:103848003B685B689BB23A68526919437B694832A6
:1038580043F832103B689B6819043B681B689AB2AE
:103868003B685B690A4379694833DB000B445A605B
:103878003B68DB69012B22D17B69D3F80C22FB68FA
:103888001A437B69C3F80C223B681B6819043B6820
:103898005B689BB23A68526919437B69483243F8BE
:1038A80032103B689B6819043B68DB689AB23B6836
:1038B8005B690A4379694833DB000B445A603B680B
:1038C8009B69002B09D17B69D3F80422FB68DB4391
:1038D8001A407B69C3F8042207E07B69D3F8042205
:1038E800FB681A437B69C3F804223B681B69002BF9
:1038F80009D17B69D3F81422FB68DB431A407B6942
:10390800C3F8142207E07B69D3F81422FB681A4332
:103918007B69C3F814223B681B6A012B07D17B69BA
:10392800D3F81C22FB681A437B69C3F81C227B6905
:10393800D3F8003223F001027B69C3F80022002388
:1039480006E07B685B6A43F480227B685A62012345
:1039580018461C37BD465DF8047B7047006400407C
:1039680080B584B000AF78607B6893F82030DBB214
:10397800012B2ED17B68022283F820207B681B68EC
:103988001A687B681B6822F001021A60FFF7D4F9F5
:10399800F86012E0FFF7D0F90246FB68D31A0A2B49
:1039A8000BD97B685B6A43F400327B685A627B6898
:1039B800052283F82020012312E07B681B685B68DE
:1039C80003F00103002BE5D17B6800225A62002333
:1039D80006E07B685B6A43F400227B685A62012335
:1039E80018461037BD4680BD80B489B000AFF86076
:1039F800B9607A603B60FB6893F82030FB77FB681E
:103A08001B689B68BB61FB7F012B03D0FB7F022BEC
:103A180040F0B880BB6903F08063002B0AD1BB6912
:103A280003F00063002B05D1BB6903F08053002B22
:103A380000F0A080BB691B0E03F003037B617B6968
:103A4800022B07D9FB685B6A43F40002FB685A62E1
:103A580001239EE001227B699A403B681A60BB689B
:103A68009B68002B0DD1BB681B685A05BB68DB68D7
:103A7800F96809681A437B6918331B010B441A60FB
:103A88000FE0BB685B68DA00BB689B681A43BB68D9
:103A9800DB68F96809681A437B6918331B010B4412
:103AA8001A60FB681968BB681A697B6918331B01BF
:103AB8000B4404331A60BB681B7D012B11D1FB68D2
:103AC8001A687B6918331B01134404331B68FA68AE
:103AD800116843F480727B6918331B010B4404336B
:103AE8001A607B6807331B781A067B6806331B78D5
:103AF8001B041A437B6805331B781B0213437A683F
:103B0800043212781046FA68116843EA00027B69A9
:103B18001B010B4403F5C6731A607B6803331B78DB
:103B28001A067B6802331B781B041A437B6801332F
:103B38001B781B0213437A6812781046FA681168DA
:103B480043EA00027B691B010B4403F5C4731A6046
:103B5800FB681A687B6918331B0113441B68FA68F1
:103B6800116843F001027B6918331B010B441A608A
:103B780000230EE0FB685B6A43F40012FB685A629C
:103B8800012306E0FB685B6A43F48022FB685A6203
:103B9800012318462437BD465DF8047B704780B47E
:103BA80085B000AF78600023FB607B6893F8203015
:103BB800FB72FB7A012B02D0FB7A022B1DD17B68AA
:103BC8001B689B6803F08063002B02D0FB680133FD
:103BD800FB607B681B689B6803F00063002B02D0C6
:103BE800FB680133FB607B681B689B6803F08053AC
:103BF800002B02D0FB680133FB60FB6818461437C2
:103C0800BD465DF8047B704780B487B000AFF860AC
:103C1800B9607A603B60FB6893F82030FB75FB7DE8
:103C2800012B03D0FB7D022B40F0F380BB68002BF7
:103C38000ED1FB681B68DB6803F00303002B16D169
:103C4800FB685B6A43F40012FB685A620123E7E0F1
:103C5800FB681B681B6903F00303002B07D1FB6893
:103C68005B6A43F40012FB685A620123D8E0FB68E0
:103C78001A68BB681B331B0113441B6803F004025A
:103C88007B689A607B689B68002B0CD1FB681A687C
:103C9800BB681B331B0113441B685B0DC3F30A028B
:103CA8007B681A600BE0FB681A68BB681B331B0152
:103CB80013441B68DB0823F060427B685A60FB688A
:103CC8001A68BB681B331B0113441B6803F002020C
:103CD8007B68DA60FB681A68BB681B331B011344F6
:103CE80004331B6803F00F027B681A61FB681A68CB
:103CF800BB681B331B01134404331B681B0ADAB26D
:103D08007B689A61FB681A68BB681B331B01134404
:103D180004331B681B0C9AB27B685A61FB681A68EB
:103D2800BB681B01134403F5DC731B68DAB23B68FC
:103D38001A70FB681A68BB681B01134403F5DC732F
:103D48001B681A0A3B680133D2B21A70FB681A68FA
:103D5800BB681B01134403F5DC731B681A0C3B6832
:103D68000233D2B21A70FB681A68BB681B0113448D
:103D780003F5DC731B681A0E3B680333D2B21A7062
:103D8800FB681A68BB681B01134403F5DE731A68E5
:103D98003B680433D2B21A70FB681A68BB681B010F
:103DA800134403F5DE731B681A0A3B680533D2B265
:103DB8001A70FB681A68BB681B01134403F5DE73AD
:103DC8001B681A0C3B680633D2B21A70FB681A6873
:103DD800BB681B01134403F5DE731B681A0E3B68AE
:103DE8000733D2B21A70BB68002B08D1FB681B6876
:103DF800DA68FB681B6842F02002DA6007E0FB68BB
:103E08001B681A69FB681B6842F020021A610023CC
:103E180006E0FB685B6A43F48022FB685A62012370
:103E280018461C37BD465DF8047B704780B485B0E2
:103E380000AF786039607B6893F82030FB73FB7BB8
:103E4800012B02D0FB7B022B09D17B681B685969C7
:103E58007B681B683A680A435A61002306E07B685E
:103E68005B6A43F480227B685A6201231846143740
:103E7800BD465DF8047B704780B58AB000AF7860B6
:103E880000237B627B681B685B693B627B681B68FD
:103E98005B68FB617B681B689B68BB617B681B6810
:103EA800DB687B617B681B681B693B617B681B68FF
:103EB8009B69FB603B6A03F00103002B7CD0BB6964
:103EC80003F00103002B23D07B681B6801229A6052
:103ED800BB6903F00203002B03D0786800F083F974
:103EE80016E0BB6903F00403002B04D07B6A43F49B
:103EF80000637B620CE0BB6903F00803002B04D06D
:103F08007B6A43F480537B6202E0786800F089F9A9
:103F1800BB6903F48073002B24D07B681B684FF4C3
:103F280080729A60BB6903F40073002B03D0786831
:103F380000F063F916E0BB6903F48063002B04D03A
:103F48007B6A43F400537B620CE0BB6903F40063B3
:103F5800002B04D07B6A43F480437B6202E07868DC
:103F680000F069F9BB6903F48033002B24D07B6827
:103F78001B684FF480329A60BB6903F40033002B4E
:103F880003D0786800F043F916E0BB6903F4802396
:103F9800002B04D07B6A43F400437B620CE0BB69CE
:103FA80003F40023002B04D07B6A43F480337B6244
:103FB80002E0786800F049F93B6A03F00803002B37
:103FC8000CD07B6903F01003002B07D07B6A43F405
:103FD80000737B627B681B681022DA603B6A03F01F
:103FE8000403002B0BD07B6903F00803002B06D0D9
:103FF8007B681B680822DA60786800F030F93B6A51
:1040080003F00203002B09D07B681B68DB6803F010
:104018000303002B02D07868FEF7C4F93B6A03F06B
:104028004003002B0CD03B6903F01003002B07D092
:104038007B6A43F480637B627B681B6810221A6189
:104048003B6A03F02003002B0BD03B6903F0080305
:10405800002B06D07B681B6808221A61786800F07C
:1040680012F93B6A03F01003002B09D07B681B6828
:104078001B6903F00303002B02D0786800F0F9F8FD
:104088003B6A03F40033002B0BD0FB6903F01003E9
:10409800002B06D07B681B6810225A60786800F0F5
:1040A800FCF83B6A03F48033002B0BD0FB6903F068
:1040B8000803002B06D07B681B6808225A607868C2
:1040C80000F0F5F83B6A03F40043002B7BD0FB6952
:1040D80003F00403002B72D03B6A03F48073002BB7
:1040E80008D0FB6803F00103002B03D07B6A43F080
:1040F80001037B623B6A03F40073002B08D0FB6862
:1041080003F00203002B03D07B6A43F002037B62B7
:104118003B6A03F48063002B08D0FB6803F00403B8
:10412800002B03D07B6A43F004037B623B6A03F4F1
:104138000063002B43D0FB6803F07003002B3ED0D4
:10414800FB6803F07003602B2BD0602B2ED8502B0C
:1041580022D0502B2AD8402B19D0402B26D8302BD0
:1041680010D0302B22D8102B02D0202B05D01DE0E8
:104178007B6A43F008037B6219E07B6A43F0100313
:104188007B6214E07B6A43F020037B620FE07B6A6A
:1041980043F040037B620AE07B6A43F080037B6262
:1041A80005E07B6A43F480737B6200E000BF7B68B4
:1041B8001B689A697B681B6822F070029A617B68A9
:1041C8001B6804225A607B6A002B08D07B685A6AF5
:1041D8007B6A1A437B685A62786800F072F800BFFD
:1041E8002837BD4680BD80B483B000AF786000BF7B
:1041F8000C37BD465DF8047B704780B483B000AFD0
:10420800786000BF0C37BD465DF8047B704780B40A
:1042180083B000AF786000BF0C37BD465DF8047B03
:10422800704780B483B000AF786000BF0C37BD46DC
:104238005DF8047B704780B483B000AF786000BF3E
:104248000C37BD465DF8047B704780B483B000AF7F
:10425800786000BF0C37BD465DF8047B704780B4BA
:1042680083B000AF786000BF0C37BD465DF8047BB3
:10427800704780B483B000AF786000BF0C37BD468C
:104288005DF8047B704780B483B000AF786000BFEE
:104298000C37BD465DF8047B704780B483B000AF2F
:1042A800786000BF0C37BD465DF8047B704780B46A
:1042B80083B000AF786000BF0C37BD465DF8047B63
:1042C800704780B483B000AF786000BF0C37BD463C
:1042D8005DF8047B7047000080B485B000AF78605B
:1042E8007B6803F00703FB600C4BDB68BB60BA68B4
:1042F8004FF6FF031340BB60FB681A02BB68134309
:1043080043F0BF6343F40033BB60044ABB68D36027
:1043180000BF1437BD465DF8047B704700ED00E030
:1043280080B400AF044BDB681B0A03F00703184690
:10433800BD465DF8047B704700ED00E080B483B0B3
:1043480000AF0346FB7197F90730002B0BDBFB79B5
:1043580003F01F02074997F907305B09012000FAAB
:1043680002F241F8232000BF0C37BD465DF8047BFC
:10437800704700BF00E100E080B483B000AF03469F
:10438800FB7197F90730002B12DBFB7903F01F0252
:104398000A4997F907305B09012000FA02F2203335
:1043A80041F82320BFF34F8F00BFBFF36F8F00BFCB
:1043B80000BF0C37BD465DF8047B704700E100E0A4
:1043C80080B483B000AF03463960FB7197F90730BA
:1043D800002B0ADB3B68DAB20C4997F90730120167
:1043E800D2B20B4483F800230AE03B68DAB20849EA
:1043F800FB7903F00F03043B1201D2B20B441A7687
:1044080000BF0C37BD465DF8047B704700E100E053
:1044180000ED00E080B489B000AFF860B9607A6060
:10442800FB6803F00703FB61FB69C3F10703042B77
:1044380028BF0423BB61FB690433062B02D9FB693F
:10444800033B00E000237B614FF0FF32BB6902FAB7
:1044580003F3DA43BB681A407B699A404FF0FF3197
:104468007B6901FA03F3D9437B680B401343184671
:104478002437BD465DF8047B7047000080B400AF68
:10448800BFF34F8F00BF064BDB6803F4E0620449BB
:10449800044B1343CB60BFF34F8F00BF00BFFDE752
:1044A80000ED00E00400FA0580B582B000AF786046
:1044B8007B68013BB3F1807F01D301230FE00A4AF7
:1044C8007B68013B53600F214FF0FF30FFF778FF07
:1044D800054B00229A60044B07221A6000231846F5
:1044E8000837BD4680BD00BF10E000E080B582B04F
:1044F80000AF78607868FFF7EFFE00BF0837BD4669
:1045080080BD80B586B000AF0346B9607A60FB73A2
:1045180000237B61FFF704FF78617A68B9687869DE
:10452800FFF778FF024697F90F3011461846FFF754
:1045380047FF00BF1837BD4680BD80B582B000AFC9
:104548000346FB7197F907301846FFF7F7FE00BFDF
:104558000837BD4680BD80B582B000AF0346FB7109
:1045680097F907301846FFF707FF00BF0837BD4621
:1045780080BD80B500AFFFF781FF80B582B000AF86
:1045880078607868FFF790FF034618460837BD46FD
:1045980080BD80B582B000AF78607B68002B01D108
:1045A800012314E07B681B79DBB2002B05D17B6803
:1045B80000225A717868FEF79FF87B6802221A7108
:1045C8007B6800221A617B6801221A710023184651
:1045D8000837BD4680BD80B483B000AF78603960CD
:1045E8007B685B79012B01D1022340E07B680122C3
:1045F8005A717B6802221A717B681B6819683B68CC
:1046080003F0100301229A407B681B680A431A6072
:104618003B68002B0FD17B681B681B6803F03C03C9
:104628003C2B1DD17B681B685A687B681B6842F06D
:1046380001025A6014E07B681B681B6803F470125F
:104648003B6803F010033C2101FA03F39A4207D1B7
:104658007B681B685A687B681B6842F002025A60D4
:104668007B6801221A717B6800225A710023184660
:104678000C37BD465DF8047B704780B582B000AF4B
:1046880078607B681B681B6803F40053B3F5005F10
:1046980020D17B681B685B6B03F40053B3F5005FA4
:1046A80018D17B6804221A717B681B6943F00102E8
:1046B8007B681A617B681B684FF400525A637B68F9
:1046C8001B681A687B681B6822F480521A60786835
:1046D80000F052F87B681B681B6803F00053B3F1C5
:1046E800005F20D17B681B685B6B03F00053B3F15C
:1046F800005F18D17B6804221A717B681B6943F03C
:1047080002027B681A617B681B684FF000525A638B
:104718007B681B681A687B681B6822F080521A60E5
:10472800786800F082F800BF0837BD4680BD80B4C5
:1047380087B000AFF860B9607A603B6000237B61A6
:10474800FB681B687B61BB68002B05D17A697B68B5
:10475800134408337B6104E07A697B68134414339B
:104768007B617B691A463B681360002318461C3737
:10477800BD465DF8047B704780B483B000AF7860B5
:1047880000BF0C37BD465DF8047B704780B487B026
:1047980000AFF860B9607A60FB685B79012B01D1E2
:1047A80002233CE0FB6801225A71FB6802221A715D
:1047B800FB681B681B687B617B6803F0100340F68D
:1047C800FE7202FA03F3DB437A6913407B61BB682C
:1047D8001A68BB685B6813433B617B6803F010038E
:1047E8003A6902FA03F37A6913437B61FB681B6831
:1047F8007A691A60FB681B6819687B6803F0100304
:10480800C02202FA03F3DA43FB681B680A401A6005
:10481800FB6801221A71FB6800225A7100231846AE
:104828001C37BD465DF8047B704780B483B000AF89
:10483800786000BF0C37BD465DF8047B7047000008
:1048480080B586B000AF786000237B61FEF774FA0C
:1048580038617B68002B01D1012399E07B68022233
:1048680083F835207B68002283F834207B681B6836
:104878001A687B681B6822F001021A600FE0FEF7D5
:104888005BFA02463B69D31A052B08D97B682022BC
:104898005A657B68032283F83520032378E07B6818
:1048A8001B681B6803F00103002BE8D17B681B68B9
:1048B8001B687B617A69384B13407B617B685A6857
:1048C8007B689B681A437B68DB681A437B681B69B3
:1048D8001A437B685B691A437B689B691A437B6848
:1048E800DB691A437B681B6A13437A6913437B614C
:1048F8007B685B6A042B07D17B68DA6A7B681B6B71
:1049080013437A6913437B617B681B687A691A6071
:104918007B681B685B697B617B6923F007037B61AC
:104928007B685B6A7A6913437B617B685B6A042BEB
:1049380017D17B689B6A7A6913437B617B68DB6A62
:10494800002B0ED0786800F06FFA0346002B08D0D1
:104958007B6840225A657B68012283F83520012351
:1049680016E07B681B687A695A61786800F026FA55
:104978000346FB607B68DB6D3F229A40FB689A60C8
:104988007B6800225A657B68012283F83520002362
:1049980018461837BD4680BD3F8010F080B586B0F8
:1049A80000AFF860B9607A603B600023FB75FB6874
:1049B8009B6D3B61FB6893F83430012B01D10223D6
:1049C80040E0FB68012283F83420FB6893F8353017
:1049D800DBB2012B2FD1FB68022283F83520FB685C
:1049E80000225A653B687A68B968F86800F0B8F937
:1049F800FB68DB6D3F229A403B699A60FB681B6845
:104A08001A68FB681B6842F016021A60FB681B6C88
:104A1800002B07D0FB681B681A68FB681B6842F00C
:104A280008021A60FB681B681A68FB681B6842F07A
:104A380001021A6005E0FB68002283F83420022393
:104A4800FB75FB7D18461837BD4680BD80B586B01E
:104A580000AF78600023BB60924B1B68924AA2FBB0
:104A680003239B0A7B617B689B6D3B613B691B68E9
:104A7800FB607B68DB6D08229A40FB681340002BC3
:104A88001AD07B681B681B6803F00403002B13D043
:104A98007B681B681A687B681B6822F004021A602E
:104AA8007B68DB6D08229A403B699A607B685B6D86
:104AB80043F001027B685A657B68DB6D01229A40EE
:104AC800FB681340002B12D07B681B685B6903F0FE
:104AD8008003002B0BD07B68DB6D01229A403B6979
:104AE8009A607B685B6D43F002027B685A657B685D
:104AF800DB6D04229A40FB681340002B12D07B68C0
:104B08001B681B6803F00203002B0BD07B68DB6D6E
:104B180004229A403B699A607B685B6D43F004020B
:104B28007B685A657B68DB6D10229A40FB681340EE
:104B3800002B43D07B681B681B6803F00803002B1D
:104B48003CD07B68DB6D10229A403B699A607B6899
:104B58001B681B6803F48023002B18D07B681B6834
:104B68001B6803F40023002B08D17B681B6C002B07
:104B780024D07B681B6C786898471FE07B689B6C27
:104B8800002B1BD07B689B6C7868984716E07B6885
:104B98001B681B6803F48073002B07D17B681B68B4
:104BA8001A687B681B6822F008021A607B681B6C15
:104BB800002B03D07B681B6C786898477B68DB6D9B
:104BC80020229A40FB681340002B00F08E807B68FF
:104BD8001B681B6803F01003002B00F086807B68BD
:104BE800DB6D20229A403B699A607B6893F83530E8
:104BF800DBB2052B36D17B681B681A687B681B689B
:104C080022F016021A607B681B685A697B681B6869
:104C180022F080025A617B681B6C002B03D17B68F1
:104C28009B6C002B07D07B681B681A687B681B6825
:104C380022F008021A607B68DB6D3F229A403B69CC
:104C48009A607B68012283F835207B68002283F80C
:104C580034207B681B6D002B7DD07B681B6D7868CA
:104C6800984778E07B681B681B6803F48023002B57
:104C78001CD07B681B681B6803F40023002B08D139
:104C88007B685B6C002B30D07B685B6C78689847DE
:104C98002BE07B68DB6B002B27D07B68DB6B7868AD
:104CA800984722E004000020B5814E1B7B681B68F2
:104CB8001B6803F48073002B0FD17B681B681A688C
:104CC8007B681B6822F010021A607B68012283F857
:104CD80035207B68002283F834207B68DB6B002B4F
:104CE80003D07B68DB6B786898477B685B6D002B2B
:104CF80032D07B685B6D03F00103002B22D07B6808
:104D0800052283F835207B681B681A687B681B6856
:104D180022F001021A60BB680133BB607A699A42CB
:104D280007D37B681B681B6803F00103002BF2D1D3
:104D380000E000BF7B68012283F835207B680022F1
:104D480083F834207B68DB6C002B05D07B68DB6C38
:104D58007868984700E000BF1837BD4680BD00BF9F
:104D680080B485B000AFF860B9607A603B60FB68DA
:104D78001B681A68FB681B6822F480221A60FB68AB
:104D88001B683A685A60FB689B68402B08D1FB682F
:104D98001B687A689A60FB681B68BA68DA6007E083
:104DA800FB681B68BA689A60FB681B687A68DA60F7
:104DB80000BF1437BD465DF8047B704780B485B0EA
:104DC80000AF78607B681B68DBB2103B144AA2FB1B
:104DD80003231B09FB60134AFB6813441B781A461C
:104DE8007B68DA65FB68032B09D97B681B6823F4A9
:104DF8007F7323F003031A1D7B689A6507E07B68BD
:104E08001B6823F47F7323F003037A6893657B6838
:104E18009B6D18461437BD465DF8047B704700BF8C
:104E2800ABAAAAAA246B010880B485B000AF786049
:104E38000023FB737B689B6ABB607B689B69002BC4
:104E48001FD1BB68032B56D801A252F823F000BF2C
:104E5800694E00087B4E0008694E0008FF4E0008A6
:104E68007B68DB6A03F08073002B46D00123FB7359
:104E780043E07B68DB6AB3F1C07F40D10123FB7359
:104E88003DE07B689B69B3F5005F21D1BB68032BCC
:104E980037D801A252F823F0B14E0008B74E0008E7
:104EA800B14E0008C94E00080123FB7330E07B684F
:104EB800DB6A03F08073002B25D00123FB7322E00B
:104EC8007B68DB6AB3F1C07F1FD10123FB731CE051
:104ED800BB68022B03D9BB68032B03D018E001235E
:104EE800FB7315E07B68DB6A03F08073002B0ED040
:104EF8000123FB730BE000BF0AE000BF08E000BF1E
:104F080006E000BF04E000BF02E000BF00E000BF11
:104F1800FB7B18461437BD465DF8047B704700BF1D
:104F280080B586B000AFF860B960C7E900230123F7
:104F3800FB75234B1B7E012B01D102233BE0204B49
:104F480001221A764CF2503000F070F80346FB75D7
:104F5800FB7D002B2BD1FB68002B05D13B78194634
:104F6800B86800F01BF916E0FB68012B05D13B88F7
:104F78001946B86800F0EEF80DE0FB68022B05D181
:104F88003B681946B86800F0C3F804E0D7E9002385
:104F9800B86800F08BF84CF2503000F047F8034640
:104FA800FB75084B1B69074A23F001031361044B87
:104FB80000221A76FB7D18461837BD4680BD00BF13
:104FC8001C120020003C024080B483B000AF0023D4
:104FD800FB710B4B1B69002B0BDA094B094A5A6012
:104FE800074B094A5A60064B1B69002B01DA01235B
:104FF800FB71FB7918460C37BD465DF8047B70479A
:10500800003C024023016745AB89EFCD80B400AF77
:10501800054B1B69044A43F00043136100231846FB
:10502800BD465DF8047B7047003C024080B584B003
:1050380000AF78600023FB601A4B0022DA61FDF7AD
:105048007BFEF86010E07B68B3F1FF3F0CD07B6813
:10505800002B07D0FDF770FE0246FB68D31A7A686A
:105068009A4201D2032319E00F4BDB6803F4803323
:10507800002BE8D10C4BDB6803F00103002B02D0B6
:10508800094B0122DA60084BDB6803F0F203002BBE
:1050980003D000F0A5F8012300E0002318461037DC
:1050A800BD4680BD1C120020003C024080B485B083
:1050B80000AFF860C7E90023144B1B69134A23F4B7
:1050C80040731361114B1B69104A43F44073136119
:1050D8000E4B1B690D4A43F001031361FB683A68E4
:1050E8001A60BFF36F8F00BFD7E900014FF00002CD
:1050F8004FF000030A000023F968043113460B60DF
:1051080000BF1437BD465DF8047B7047003C024081
:1051180080B483B000AF786039600D4B1B690C4ACE
:1051280023F4407313610A4B1B69094A43F4007363
:105138001361074B1B69064A43F0010313617B683F
:105148003A681A6000BF0C37BD465DF8047B7047AB
:10515800003C024080B483B000AF78600B467B808F
:105168000D4B1B690C4A23F4407313610A4B1B69EE
:10517800094A43F480731361074B1B69064A43F0DD
:10518800010313617B687A881A8000BF0C37BD461B
:105198005DF8047B704700BF003C024080B483B0D8
:1051A80000AF78600B46FB700C4B1B690B4A23F46D
:1051B80040731361094B094A1B691361074B1B694B
:1051C800064A43F0010313617B68FA781A7000BF3E
:1051D8000C37BD465DF8047B704700BF003C0240B9
:1051E80080B400AF274BDB6803F01003002B08D016
:1051F800254BDB6943F01003234AD361214B10226E
:10520800DA60204BDB6803F02003002B08D01E4B2C
:10521800DB6943F008031C4AD3611A4B2022DA6089
:10522800184BDB6803F04003002B08D0164BDB69F2
:1052380043F00403144AD361124B4022DA60114B45
:10524800DB6803F08003002B08D00F4BDB6943F0C9
:1052580002030D4AD3610B4B8022DA60094BDB68ED
:1052680003F00203002B08D0074BDB6943F020034F
:10527800054AD361034B0222DA6000BFBD465DF8E0
:10528800047B7047003C02401C12002080B485B0AB
:1052980000AF78600B46FB700023FB60FB78002BA7
:1052A80002D10023FB6010E0FB78012B03D14FF4FF
:1052B8008073FB6009E0FB78022B03D14FF4007385
:1052C800FB6002E04FF44073FB60134B1B69124A0A
:1052D80023F440731361104B1A690F49FB68134399
:1052E8000B610D4B1B690C4A23F0F80313610A4B41
:1052F8001A697B68DB001343074A43F00203136112
:10530800054B1B69044A43F48033136100BF14370B
:10531800BD465DF8047B7047003C024080B489B00C
:1053280000AF7860396000237B6100233B61002374
:10533800BB610023FB616BE10122FB6902FA03F305
:105348007B613B681B687A6913403B613A697B69FA
:105358009A4240F05A813B685B6803F00303012BD3
:1053680005D03B685B6803F00303022B30D17B68F0
:105378009B68BB61FB695B00032202FA03F3DB4312
:10538800BA691340BB613B68DA68FB695B0002FAE3
:1053980003F3BA691343BB617B68BA699A607B6897
:1053A8005B68BB610122FB6902FA03F3DB43BA695C
:1053B8001340BB613B685B681B0903F00102FB6992
:1053C80002FA03F3BA691343BB617B68BA695A608E
:1053D8003B685B6803F00303032B17D07B68DB682B
:1053E800BB61FB695B00032202FA03F3DB43BA6982
:1053F8001340BB613B689A68FB695B0002FA03F3E0
:10540800BA691343BB617B68BA69DA603B685B6859
:1054180003F00303022B23D1FB69DA087B68083207
:1054280053F82230BB61FB6903F007039B000F228E
:1054380002FA03F3DB43BA691340BB613B681A699C
:10544800FB6903F007039B0002FA03F3BA691343ED
:10545800BB61FB69DA087B680832B96943F8221036
:105468007B681B68BB61FB695B00032202FA03F3DC
:10547800DB43BA691340BB613B685B6803F0030216
:10548800FB695B0002FA03F3BA691343BB617B68EB
:10549800BA691A603B685B6803F44033002B00F07C
:1054A800B4800023FB60604B5B6C5F4A43F480432D
:1054B80053645D4B5B6C03F48043FB60FB685B4AA1
:1054C800FB699B08023352F82330BB61FB6903F088
:1054D80003039B000F2202FA03F3DB43BA6913406C
:1054E800BB617B68524A93422BD07B68514A9342F6
:1054F80025D07B68504A93421FD07B684F4A93421D
:1055080019D07B684E4A934213D07B684D4A934228
:105518000DD07B684C4A934207D07B684B4A934234
:1055280001D107230EE008230CE006230AE0052337
:1055380008E0042306E0032304E0022302E0012339
:1055480000E00023FA6902F0030292009340BA696E
:105558001343BB613549FB699B080233BA6941F8BB
:1055680023203B4B1B68BB613B69DB43BA69134093
:10557800BB613B685B6803F48033002B03D0BA69D6
:105588003B691343BB61324ABB691360304B5B68AC
:10559800BB613B69DB43BA691340BB613B685B682D
:1055A80003F40033002B03D0BA693B691343BB6192
:1055B800274ABB695360264B9B68BB613B69DB4349
:1055C800BA691340BB613B685B6803F48013002B26
:1055D80003D0BA693B691343BB611D4ABB69936039
:1055E8001B4BDB68BB613B69DB43BA691340BB619A
:1055F8003B685B6803F40013002B03D0BA693B696E
:105608001343BB61124ABB69D360FB690133FB6179
:10561800FB690F2B7FF690AE00BF00BF2437BD4655
:105628005DF8047B704700BF003802400038014035
:10563800000002400004024000080240000C024042
:10564800001002400014024000180240001C0240F2
:10565800003C014080B485B000AF78600B467B8089
:105668007B681A697B881340002B02D00123FB73E7
:1056780001E00023FB73FB7B18461437BD465DF839
:10568800047B704780B483B000AF78600B467B80A2
:1056980013467B707B78002B03D07A887B689A61ED
:1056A80003E07B881A047B689A6100BF0C37BD460B
:1056B8005DF8047B7047000080B582B000AF0346F8
:1056C800FB80084B5A69FB881340002B06D0054A1B
:1056D800FB885361FB881846FCF722FE00BF083799
:1056E800BD4680BD003C0140F0B58FB00AAF786080
:1056F8007B68002B01D101230FE17B681B68BB602D
:105708007B6893F8BD33DBB2002B06D17B6800229F
:1057180083F8BC2378680EF087FD7B68032283F842
:10572800BD23BB68DB6B03F48073002B02D17B685D
:1057380000221A617B681B68184603F028FC7B6806
:105748001B683B607E686D4606F110040FCC0FC5E0
:105758000FCC0FC594E8030085E80300331D0ECB7A
:10576800386803F0FFFA0346002B05D07B68022255
:1057780083F8BD230123D0E07B681B68002118460D
:1057880003F016FC0023FB734AE0FA7B79681346A2
:10579800DB009B1A9B000B443D3301221A70FA7BF5
:1057A80079681346DB009B1A9B000B443C33FA7B59
:1057B8001A70FA7BFB7B98B279681346DB009B1A58
:1057C8009B000B44423302461A80FA7B79681346E1
:1057D800DB009B1A9B000B443F3300221A70FA7BB4
:1057E80079681346DB009B1A9B000B444433002264
:1057F8001A60FA7B79681346DB009B1A9B000B44FE
:10580800483300221A60FA7B79681346DB009B1A3A
:105818009B000B44503300221A60FB7B0133FB735F
:10582800FA7B7B685B689A42AFD30023FB7344E042
:10583800FA7B79681346DB009B1A9B000B4403F242
:10584800FD1300221A70FA7B79681346DB009B1A55
:105858009B000B4403F5FE73FA7B1A70FA7B796898
:105868001346DB009B1A9B000B4403F2FF13002234
:105878001A70FA7B79681346DB009B1A9B000B446D
:1058880003F5017300221A60FA7B79681346DB007E
:105898009B1A9B000B4403F5027300221A60FA7BE3
:1058A80079681346DB009B1A9B000B4403F50473CD
:1058B80000221A60FB7B0133FB73FA7B7B685B6811
:1058C8009A42B5D37B681B683B607E686D4606F1DB
:1058D80010040FCC0FC50FCC0FC594E8030085E862
:1058E8000300331D0ECB386803F0AEFB0346002BD4
:1058F80005D07B68022283F8BD2301230DE07B6875
:10590800002283F838207B68012283F8BD237B6856
:105918001B68184604F02AFC002318461437BD46B5
:10592800F0BD80B584B000AF78607B681B68FB6011
:105938007B6893F8BC33012B01D1022320E07B68FC
:10594800012283F8BC237B689B6A012B09D17B6801
:105958009B69012B05D0FB689B6B43F48032FB6885
:105968009A637B681B68184603F000FB7B681B681A
:10597800184604F0DAFB7B68002283F8BC23002376
:1059880018461037BD4680BD90B58DB000AF786021
:105998007B681B683B623B6AFB617B681B68184637
:1059A80004F098FC0346002B40F09D837B681B683D
:1059B800184604F0FCFB0346002B00F093837B6839
:1059C8001B68184604F0F3FB034603F00203022B9E
:1059D80007D17B681B685A697B681B6802F0020262
:1059E8005A617B681B68184604F0E1FB034603F024
:1059F8001003102B61D17B681B689A697B681B6850
:105A080022F010029A613B6A1B6ABB61BB6903F012
:105A18000F021346DB009B1A9B0003F5FC737A68A0
:105A2800134404337B61BB695B0C03F00F03022B47
:105A380024D1BA6947F6F0731340002B35D07B693F
:105A4800D968BB691B099BB2C3F30A039BB21A4608
:105A5800386A04F018FA7B69DA68BB691B09C3F372
:105A68000A031A447B69DA607B699A69BB691B0976
:105A7800C3F30A031A447B699A6116E0BB695B0C9D
:105A880003F00F03062B10D17B6803F5717308220E
:105A98001946386A04F0F7F97B699A69BB691B09EA
:105AA800C3F30A031A447B699A617B681B689A6985
:105AB8007B681B6842F010029A617B681B68184675
:105AC80004F075FB034603F40023B3F5002F6ED1F1
